:100000000C943E000C9453000C9453000C94530039
:100010000C9453000C9453000C9453000C94530014
:100020000C9453000C9453000C9453000C94530004
:100030000C9453000C9453000C9453000C945300F4
:100040000C9453000C9453000C9453000C945300E4
:100050000C9453000C9453000C9453000C945300D4
:100060000C9453000C9453000C9453000C945300C4
:100070000C9453000C9453000C94530011241FBE95
:10008000CFEFD8E0DEBFCDBF11E0A0E0B1E0ECE201
:10009000F2E002C005900D92A235B107D9F70E9497
:1000A00076000C9414010C940000FC0140E050E038
:1000B000A1E090E40DC08A2F8A95F1F72F5F3F4FA2
:1000C0002E173F07C0F38BB189278BB94E0F5F1FE7
:1000D0004617570718F420E030E0F2CF089531E0DA
:1000E000232F2A95F1F70197D9F70895CF92DF9240
:1000F000EF92FF920F931F93CF93DF93569A0E9434
:10010000CF0080E091E00E94EF00C0E0D8E7CE0190
:10011000EC01CE0163E070E00E9400016B017E0102
:10012000F694E7940E94E800082F8EE40E94E00015
:10013000A0E0B0E0FD01E05CFE4F80810817E9F42B
:10014000AA0FBB1FA45EBE4F0D911C91C80108965B
:10015000B6010E945500C8018097B7010E94550062
:10016000C80180589F4FB6010E945500C8018E54A7
:100170009040B7010E945500D5CF1196A231B1052C
:10018000C9F60B3519F4C0E0D8E7C3CF80E090EF93
:100190000D3509F4BDCFCE010E946F00B8CF10928B
:1001A000C5008CE08093C400E0ECF0E080818260C8
:1001B000808388E18093C10086E08093C200089527
:1001C000982F8091C00085FFFCCF9093C6000895C2
:1001D0008091C00087FFFCCF8091C6000895AC01DC
:1001E00020E007C08091C00085FFFCCFE093C600EF
:1001F0002F5FFA01E20FF11DE081EE2399F70895D8
:10020000AA1BBB1B51E107C0AA1FBB1FA617B7073C
:1002100010F0A61BB70B881F991F5A95A9F7809558
:0C0220009095BC01CD010895F894FFCF2B
:10022C002D2D2D2D2D2053657269616C204F726719
:10023C00616E202D2D2D2D2D2D0D0A001304D803AC
:10024C00A1036D033B030D03E102B80291026C02A2
:10025C00490228020902EC01D001B6019E01860177
:10026C00617773656466746779686A696B6F6C70C3
:02027C003B271E
:00000001FF
